:100000000C9458000C9480000C9480000C94800098
:100010000C9480000C9480000C9480000C94800060
:100020000C9480000C9480000C9480000C94800050
:100030000C9480000C9480000C9480000C94800040
:100040000C940B050C9480000C94D9040C94B3040C
:100050000C9480000C9480000C9480000C94800020
:100060000C9455050C948000000000002500280029
:100070002B00040404040404040402020202020229
:10008000030303030303010204081020408001025C
:1000900004081020010204081020000000080002DB
:1000A00001000003040700000000000000008306B8
:1000B00011241FBECFEFD8E0DEBFCDBF11E0A0E01E
:1000C000B1E0EAE9F4E102C005900D92A437B1076E
:1000D000D9F722E0A4E7B1E001C01D92AB3DB20721
:1000E000E1F710E0C8E5D0E004C02197FE010E94CE
:1000F0000408C735D107C9F70E94BF060C944B0A04
:100100000C94000090E0FC01E656FF4F2491FC01A6
:10011000EA57FF4F3491FC01EE58FF4FE491EE2374
:10012000B1F1222339F1233091F038F42130A9F0D4
:10013000223001F584B58F7D12C0273091F0283030
:10014000A1F02430B9F4809180008F7D03C08091AC
:1001500080008F77809380000DC084B58F7784BD39
:1001600009C08091B0008F7703C08091B0008F7D6F
:100170008093B000F0E0EE0FFF1FE859FF4FA5910C
:10018000B4918FB7F894EC913E2B3C938FBF0895B8
:10019000CF92DF92EF92FF920F931F93CF93DF9353
:1001A0006C017A018B01C0E0D0E0CE15DF0589F04B
:1001B000D8016D918D01D601ED91FC910190F081F6
:1001C000E02DC6010995892B11F47E0102C021960C
:1001D000ECCFC701DF91CF911F910F91FF90EF906E
:1001E000DF90CF900895FC01918D828D981761F07A
:1001F000828DDF01A80FB11D5D968C91928D9F5F5E
:100200009F73928F90E008958FEF9FEF0895FC0108
:10021000918D828D981731F0828DE80FF11D858DBB
:1002200090E008958FEF9FEF0895FC01918D228D4E
:10023000892F90E0805C9F4F821B91098F739927D3
:10024000089581E392E00E94150121E0892B09F4D1
:1002500020E0822F0895FC01848DDF01A80FB11DDD
:10026000A35ABF4F2C91848D90E001968F739927EC
:10027000848FA689B7892C93A089B1898C918064D9
:100280008C93938D848D981306C00288F389E02D9A
:1002900080818F7D80830895EF92FF920F931F934B
:1002A000CF93DF93EC0181E0888F9B8D8C8D981329
:1002B00005C0E889F989808185FD24C0F62E0B8D63
:1002C00010E00F5F1F4F0F731127E02E8C8DE81287
:1002D0000CC00FB607FCFACFE889F989808185FF49
:1002E000F5CFCE010E942B01F1CF8B8DFE01E80FDF
:1002F000F11DE35AFF4FF0820B8FEA89FB89808161
:10030000806207C0EE89FF896083E889F98980816E
:100310008064808381E090E0DF91CF911F910F9105
:10032000FF90EF900895CF93DF93EC01888D8823A1
:10033000C9F0EA89FB89808185FD05C0A889B98952
:100340008C9186FD0FC00FB607FCF5CF808185FF2D
:10035000F2CFA889B9898C9185FFEDCFCE010E949B
:100360002B01E7CFDF91CF91089580E090E0892BBA
:1003700029F00E94210181110C94000008953FB7DB
:10038000F8948091C0019091C101A091C201B091F7
:10039000C30126B5A89B05C02F3F19F00196A11DEA
:1003A000B11D3FBFBA2FA92F982F8827820F911D0B
:1003B000A11DB11DBC01CD0143E0660F771F881F51
:1003C000991F4A95D1F7089585ED8093BC008091DF
:1003D000BC0084FDFCCF10920C0208954091960160
:1003E000262F30E0240F311D21323105DCF420911D
:1003F0000C022430C9F4FC0180E090E0861758F428
:10040000309196012191DC01AC58BE4FA30FB11D74
:100410002C930196F3CF80919601680F609396011B
:1004200080E0089581E0089582E008950895E091C4
:10043000C5018091C401E81730F4F0E0EA53FE4FA3
:10044000808190E008958FEF9FEF08959091C5010E
:100450008091C401981750F4E92FF0E0EA53FE4F61
:10046000208130E09F5F9093C50102C02FEF3FEFE6
:10047000C90108958091C40190E02091C501821BBB
:1004800091090895CF92DF92EF92FF920F931F93FD
:10049000CF93DF937C01262F972F8A018091300222
:1004A000882391F0C62FD72F6E01C40ED51ECC1510
:1004B000DD0571F06991D701ED91FC910190F0811A
:1004C000E02DC7010995F3CF642F822F0E94EE0122
:1004D000C801DF91CF911F910F91FF90EF90DF90B6
:1004E000CF900895CF93DF931F92CDB7DEB7698386
:1004F000209130022223D1F020912D02203240F0B1
:1005000021E030E0FC013383228380E090E015C0DD
:1005100080912E02E82FF0E0E35FFD4F99819083F8
:100520008F5F80932E0280932D0205C061E0CE0183
:1005300001960E94EE0181E090E00F90DF91CF9153
:100540000895009769F0FC0101900020E9F73197C8
:10055000AF01481B590BBC0181E392E00C94C80029
:1005600080E090E00895CF93DF930E94A102EC0118
:1005700080E291E00E94A1028C0F9D1FDF91CF913C
:1005800008958F929F92AF92BF920F931F93CF9334
:10059000DF93CDB7DEB7A1970FB6F894DEBF0FBEDD
:1005A000CDBF19A2423008F44AE08E010F5D1F4F03
:1005B000842E912CA12CB12CA50194010E94E2075C
:1005C000E62FB901CA0101501109EA3014F4E05DC7
:1005D00001C0E95CD801EC93232B242B252B61F778
:1005E000C8010E94A102A1960FB6F894DEBF0FBE0B
:1005F000CDBFDF91CF911F910F91BF90AF909F9092
:100600008F9008954F925F926F927F928F929F92F8
:10061000AF92BF92CF92DF92EF92FF926B017C017B
:10062000B42E9B01AC010E94410A882319F083E299
:1006300091E027C026013701E89477F82FEF3FEFCC
:100640004FE75FE7C301B2010E94410A81110DC06B
:100650002FEF3FEF4FE75FE7C301B2010E9477083A
:1006600018161CF487E291E00CC02FEF3FEF4FE724
:100670005FE4C701B6010E94CF09181684F48BE22B
:1006800091E0FF90EF90DF90CF90BF90AF909F9060
:100690008F907F906F905F904F900C94A1022FEFFE
:1006A0003FEF4FE75FECC701B6010E94770887FD77
:1006B000E6CF20E030E0A901C701B6010E9477082B
:1006C00087FF11C0E0913102F09132020190F08178
:1006D000E02D6DE281E392E009954C01F7FAF09488
:1006E000F7F8F09402C0812C912CA12C60E070E00E
:1006F00080E09FE3AB1441F020E030E040E251E4C1
:100700000E947C08A394F6CF9B01AC01C701B601FF
:100710000E940B082B013C010E94EE086B017C013A
:100720000E941D099B01AC01C301B2010E940A088D
:100730002B013C014AE0C701B6010E94C1027C01C5
:10074000E80CF91CBB2031F08FE291E00E94A1027D
:10075000E80EF91EDB2CDD2021F120E030E040E244
:1007600051E4C301B2010E94D4092B013C010E9453
:10077000EE084B01A12CB12C4AE0C501B4010E9446
:10078000C102E80EF91EC501B4010E941D099B01BA
:10079000AC01C301B2010E940A082B013C01DA94AA
:1007A000DACFC701FF90EF90DF90CF90BF90AF906E
:1007B0009F908F907F906F905F904F900895CF9310
:1007C000DF93C091DA0291E090933002C0932F0240
:1007D00010922E0210922D02682F8EEC92E00E9451
:1007E000720280912D02813208F045C090910C0276
:1007F0009111FCCF92E090930C0210920B029FEFAC
:1008000090930A021092090280930802ADE0B2E0D0
:1008100028EE31E0F9019E2F921B981718F49D9154
:100820009193F9CF1092E7018091E701CC0FC82B8B
:10083000C093E7018091E601813061F41092E601F6
:100840008091E7018093BB008091BC0083FDF8CFCD
:1008500085EC01C085EE8093BC0080910C02823053
:10086000E1F380910A028F3F31F080910A028032D9
:1008700011F080910A0210922E0210922D02109215
:1008800030028091DA0290910C029111FCCF91E03C
:1008900090930C0290930B022FEF20930A02109278
:1008A000090222E0209308029093E7019091E7016A
:1008B000880F892B8093E7018091E601813061F4F4
:1008C0001092E6018091E7018093BB008091BC000B
:1008D00083FDF8CF85EC01C085EE8093BC0080914C
:1008E0000C028130E1F380910902833018F4809189
:1008F000090201C083E0A8EEB1E026EC31E0F90185
:100900009E2F921B981718F49D919193F9CF1092F6
:10091000C5018093C4018EEC92E00E942602EC0196
:100920008EEC92E00E94260260E070E0782FC62BE9
:10093000D72B8EEC92E00E942602BE0180E090E070
:100940000E941D092AE037ED43EA5CE30E94D409C6
:1009500023E333E948E853E40E940A08DF91CF918A
:1009600008950E94460A1F920F920FB60F9211240B
:100970002F933F934F935F936F937F938F939F93A7
:10098000AF93BF93EF93FF9381E392E00E942B011B
:10099000FF91EF91BF91AF919F918F917F916F9157
:1009A0005F914F913F912F910F900FBE0F901F902D
:1009B00018951F920F920FB60F9211242F938F93B9
:1009C0009F93EF93FF93E0914102F0914202808167
:1009D000E0914702F091480282FD12C0908180911F
:1009E0004A028F5F8F7320914B02821751F0E09182
:1009F0004A02F0E0EF5CFD4F958F80934A0201C000
:100A00008081FF91EF919F918F912F910F900FBE59
:100A10000F901F9018951F920F920FB60F921124EE
:100A20002F933F938F939F93AF93BF938091BC017C
:100A30009091BD01A091BE01B091BF013091BB0169
:100A400026E0230F2D3720F40296A11DB11D05C00D
:100A500029E8230F0396A11DB11D2093BB018093AC
:100A6000BC019093BD01A093BE01B093BF018091E2
:100A7000C0019091C101A091C201B091C301019642
:100A8000A11DB11D8093C0019093C101A093C2012B
:100A9000B093C301BF91AF919F918F913F912F91DF
:100AA0000F900FBE0F901F9018951F920F920FB6C8
:100AB0000F9211242F933F934F935F936F937F93E4
:100AC0008F939F93AF93BF93EF93FF938091B90060
:100AD000887F803609F49CC068F5883209F45BC0D1
:100AE00090F4803109F454C038F4882309F4F6C036
:100AF000883009F44DC0F6C0883109F44CC080320A
:100B000009F45DC0EFC0803409F468C048F4803354
:100B100009F455C0883309F0E5C080930A02D8C0B3
:100B2000803509F44FC0883509F45DC0883409F078
:100B3000D9C0D6C0883909F4C7C0A8F4883709F4E9
:100B400067C038F4883609F463C0803709F460C0A0
:100B5000C9C0883809F4B8C0803909F45FC080384A
:100B600009F0C0C05BC0803B09F486C038F4803A0D
:100B700009F466C0883A09F47FC0B4C0803C09F427
:100B8000A7C0883C09F4A4C0883B09F48AC0AAC065
:100B90008091E70110C09091090280910802981796
:100BA00070F5E091090281E08E0F80930902F0E078
:100BB000E851FE4F80818093BB0085EC86C0809316
:100BC0000A028EC0E091090281E08E0F8093090233
:100BD0008091BB00F0E0E851FE4F808390910902C4
:100BE000809108026EC0E091090281E08E0F80932F
:100BF00009028091BB00F0E0E851FE4F80838091B4
:100C00000B0281116DC081E08093E60184EA61C02E
:100C100083E080930C021092BA01CFCF8091BA0189
:100C2000803208F051C0E091BA0181E08E0F8093CC
:100C3000BA018091BB00F0E0E656FE4F8083BDCF45
:100C400085EC8093BC0010920C028091BA01803236
:100C500030F4E091BA01F0E0E656FE4F1082609168
:100C6000BA0170E0E0919801F09199018AE991E070
:100C700009951092BA0136C084E080930C0210925C
:100C8000970110929601E0919401F09195010995D8
:100C900080919601811105C081E0809396011092A8
:100CA0007401E091970181E08E0F80939701F0E04D
:100CB000EC58FE4F80818093BB009091970180910A
:100CC0009601981708F479CF85E88093BC000AC094
:100CD00085EC8093BC0010920C0204C010920A02B2
:100CE0000E94E401FF91EF91BF91AF919F918F918D
:100CF0007F916F915F914F913F912F910F900FBE18
:100D00000F901F901895E1E3F2E01382128288EEB3
:100D100093E0A0E0B0E084839583A683B78324E0CA
:100D200031E03183208325EC30E03587248724ECC3
:100D300030E03787268720EC30E0318B208B21ECA8
:100D400030E0338B228B22EC30E0358B248B26EC89
:100D500030E0378B268B118E128E138E148EEEECB4
:100D6000F2E01382128284839583A683B78384E1A1
:100D700091E0918380838AE58093DA0208957894E4
:100D800084B5826084BD84B5816084BD85B5826090
:100D900085BD85B5816085BD80916E008160809341
:100DA0006E001092810080918100826080938100AA
:100DB00080918100816080938100809180008160BA
:100DC000809380008091B10084608093B100809115
:100DD000B00081608093B00080917A00846080933D
:100DE0007A0080917A00826080937A0080917A0004
:100DF0008E7F80937A0080917A00806880937A0059
:100E00001092C100E0914102F091420282E08083A1
:100E1000E0913D02F0913E021082E0913F02F0919C
:100E2000400287E6808310924902E0914502F091EA
:100E3000460286E08083E0914302F0914402808183
:100E400080618083E0914302F09144028081886058
:100E50008083E0914302F091440280818068808326
:100E6000E0914302F091440280818F7D808381E391
:100E700091E00E94B3021092C5011092C401109239
:100E80002E0210922D0210920C0281E080930B0230
:100E90001092E60182E10E94820083E10E948200BA
:100EA0008091B9008E7F8093B9008091B9008D7FC9
:100EB0008093B90080E28093B80085E48093BC0001
:100EC00088E491E00E94A10286E00E94DF0342E0F4
:100ED0000E94020383E591E00E94A10287E00E9444
:100EE000DF0342E00E94020380E691E00E94B30229
:100EF00088E491E00E94A10286E00E94DF0320E0E6
:100F000030E040E151E40E94D40920E030E040EAC2
:100F100050E40E947C0820E030E040E052E40E946F
:100F20000B0842E00E94020383E691E00E94A102C6
:100F300087E00E94DF0320E030E040E151E40E94BE
:100F4000D40920E030E040EA50E40E947C0820E030
:100F500030E040E052E40E940B0842E00E940203AD
:100F600080E791E00E94B30280E291E00E94A1023A
:100F70000E94BF014B015C0184EFC82EDD24D39495
:100F8000E12CF12C0E94BF01DC01CB0188199909E9
:100F9000AA09BB09883E9340A105B10558F021E09C
:100FA000C21AD108E108F10888EE880E83E0981E85
:100FB000A11CB11CC114D104E104F10419F70E9471
:100FC000B5017ECFA1E21A2EAA1BBB1BFD010DC0ED
:100FD000AA1FBB1FEE1FFF1FA217B307E407F507E9
:100FE00020F0A21BB30BE40BF50B661F771F881FC5
:100FF000991F1A9469F760957095809590959B015B
:10100000AC01BD01CF010895EE0FFF1F0590F491D3
:10101000E02D09945058BB27AA270E9422080C945F
:1010200095090E94870938F00E948E0920F039F452
:101030009F3F19F426F40C9484090EF4E095E7FB25
:101040000C947E09E92F0E94A60958F3BA1762078B
:1010500073078407950720F079F4A6F50C94C80966
:101060000EF4E0950B2EBA2FA02D0B01B9019001C3
:101070000C01CA01A0011124FF27591B99F0593F07
:1010800050F4503E68F11A16F040A22F232F342F4F
:101090004427585FF3CF469537952795A795F0409D
:1010A0005395C9F77EF41F16BA0B620B730B840BB2
:1010B000BAF09150A1F0FF0FBB1F661F771F881F6A
:1010C000C2F70EC0BA0F621F731F841F48F48795C2
:1010D00077956795B795F7959E3F08F0B0CF9395B4
:1010E000880F08F09927EE0F9795879508950E942D
:1010F0005A0908F481E008950E9490080C9495091B
:101100000E948E0958F00E94870940F029F45F3F41
:1011100029F00C947E0951110C94C9090C9484098E
:101120000E94A60968F39923B1F3552391F3951B07
:10113000550BBB27AA2762177307840738F09F5FF8
:101140005F4F220F331F441FAA1FA9F335D00E2E65
:101150003AF0E0E832D091505040E695001CCAF7D2
:101160002BD0FE2F29D0660F771F881FBB1F261795
:1011700037074807AB07B0E809F0BB0B802DBF016C
:10118000FF2793585F4F3AF09E3F510578F00C943B
:101190007E090C94C9095F3FE4F3983ED4F3869529
:1011A00077956795B795F7959F5FC9F7880F911D5C
:1011B0009695879597F90895E1E0660F771F881F48
:1011C000BB1F621773078407BA0720F0621B730BFB
:1011D000840BBA0BEE1F88F7E09508950E94AE09C4
:1011E00088F09F5798F0B92F9927B751B0F0E1F0E8
:1011F000660F771F881F991F1AF0BA95C9F714C098
:10120000B13091F00E94C809B1E008950C94C8096A
:10121000672F782F8827B85F39F0B93FCCF38695D0
:1012200077956795B395D9F73EF49095809570952D
:1012300061957F4F8F4F9F4F0895E89409C097FBAA
:101240003EF490958095709561957F4F8F4F9F4F9D
:101250009923A9F0F92F96E9BB279395F6958795E1
:1012600077956795B795F111F8CFFAF4BB0F11F4A4
:1012700060FF1BC06F5F7F4F8F4F9F4F16C088234B
:1012800011F096E911C0772321F09EE8872F762F81
:1012900005C0662371F096E8862F70E060E02AF0C2
:1012A0009A95660F771F881FDAF7880F96958795AE
:1012B00097F90895990F0008550FAA0BE0E8FEEF83
:1012C00016161706E807F907C0F012161306E4070A
:1012D000F50798F0621B730B840B950B39F40A2603
:1012E00061F0232B242B252B21F408950A2609F4E1
:1012F000A140A6958FEF811D811D089597F99F67E5
:1013000080E870E060E008959FEF80EC089500248D
:101310000A941616170618060906089500240A945A
:1013200012161306140605060895092E0394000CE0
:1013300011F4882352F0BB0F40F4BF2B11F460FF6F
:1013400004C06F5F7F4F8F4F9F4F089557FD905898
:10135000440F551F59F05F3F71F04795880F97FB79
:10136000991F61F09F3F79F0879508951216130633
:101370001406551FF2CF4695F1DF08C01616170662
:101380001806991FF1CF8695710561050894089597
:10139000E894BB2766277727CB0197F908950E9429
:1013A0005A0908F48FEF08950E94E7090C949509F3
:1013B0000E94870938F00E948E0920F0952311F0D1
:1013C0000C947E090C94840911240C94C9090E9480
:1013D000A60970F3959FC1F3950F50E0551F629FCA
:1013E000F001729FBB27F00DB11D639FAA27F00D7E
:1013F000B11DAA1F649F6627B00DA11D661F829FA5
:101400002227B00DA11D621F739FB00DA11D621F89
:10141000839FA00D611D221F749F3327A00D611DA6
:10142000231F849F600D211D822F762F6A2F112488
:101430009F5750409AF0F1F088234AF0EE0FFF1FBB
:10144000BB1F661F771F881F91505040A9F79E3F12
:10145000510580F00C947E090C94C9095F3FE4F3B8
:10146000983ED4F3869577956795B795F795E79568
:101470009F5FC1F7FE2B880F911D9695879597F971
:1014800008950E945A09880B990B089581E090E015
:0A149000F8940C944B0AF894FFCF77
:10149A00000000004C01C8001501F3000701930188
:1014AA0000000000720242023A02260217021602E5
:1014BA000D0A006E616E00696E66006F7666002E18
:1014CA00004164616672756974204D4C5839303632
:1014DA003134207465737400416D6269656E7420DD
:1014EA003D20002A43094F626A656374203D20004B
:1014FA002A43002A46094F626A656374203D200028
:04150A002A4600006D
:107800000C94343C0C94513C0C94513C0C94513CE1
:107810000C94513C0C94513C0C94513C0C94513CB4
:107820000C94513C0C94513C0C94513C0C94513CA4
:107830000C94513C0C94513C0C94513C0C94513C94
:107840000C94513C0C94513C0C94513C0C94513C84
:107850000C94513C0C94513C0C94513C0C94513C74
:107860000C94513C0C94513C11241FBECFEFD8E036
:10787000DEBFCDBF11E0A0E0B1E0EAE8FFE702C063
:1078800005900D92A230B107D9F712E0A2E0B1E065
:1078900001C01D92AD30B107E1F70E942D3D0C945F
:1078A000C33F0C94003C982F95959595959595958B
:1078B000905D8F708A307CF0282F295A8091C0000B
:1078C00085FFFCCF9093C6008091C00085FFFCCF60
:1078D0002093C6000895282F205DF0CF982F809127
:1078E000C00085FFFCCF9093C6000895EF92FF92F1
:1078F0000F931F93EE24FF2487018091C00087FD22
:1079000017C00894E11CF11C011D111D81E2E8164D
:1079100081EAF80687E0080780E0180770F3E09135
:107920000401F091050109958091C00087FFE9CF1E
:107930008091C6001F910F91FF90EF9008950E94D3
:10794000763C982F8091C00085FFFCCF9093C600B5
:1079500091362CF490330CF09053892F089597555D
:10796000892F08951F930E949F3C182F0E949F3CCF
:107970001295107F810F1F9108951F93182F882350
:1079800021F00E94763C1150E1F71F9108951F935A
:10799000182F0E94763C803249F0809103018F5F5E
:1079A000809303018530C1F01F9108958091C0003C
:1079B00085FFFCCF84E18093C6008091C00085FFE5
:1079C000FCCF1093C6008091C00085FFFCCF80E102
:1079D0008093C6001F910895E0910401F091050184
:1079E00009951F9108950E94763C803241F0809164
:1079F00003018F5F80930301853081F008958091AA
:107A0000C00085FFFCCF84E18093C6008091C00058
:107A100085FFFCCF80E18093C6000895E0910401CA
:107A2000F09105010995089548EC50E08823A1F0F4
:107A30002D9A28EE33E0FA013197F1F721503040CA
:107A4000D1F72D9828EE33E0FA013197F1F7215064
:107A50003040D1F7815061F708953F924F925F9285
:107A60006F927F928F929F92AF92BF92CF92DF924E
:107A7000EF92FF920F931F93CF93DF93000082E06A
:107A80008093C00080E18093C4001092C50088E11B
:107A90008093C10086E08093C2005098589A259A3E
:107AA00081E00E94143D24E1F22E9EE1E92E85E959
:107AB000D82E0FE0C02E10E1B12EAA24A394B1E479
:107AC0009B2EA6E58A2EF2E57F2EE0E26E2E79E46B
:107AD000572E63E5462E50E5352E0E94763C8033C6
:107AE000B1F18133B9F1803409F46FC0813409F404
:107AF00076C0823409F485C0853409F488C08035A5
:107B000031F1823521F1813511F1853509F485C0D6
:107B1000863509F48DC0843609F496C0843709F49B
:107B200003C1853709F472C1863709F466C08091B4
:107B300003018F5F80930301853079F6E0910401A2
:107B4000F091050109950E94763C803351F60E9420
:107B5000F33CC3CF0E94763C803249F78091C0004D
:107B600085FFFCCFF092C6008091C00085FFFCCF5E
:107B70009092C6008091C00085FFFCCF8092C60025
:107B80008091C00085FFFCCF7092C6008091C0003C
:107B900085FFFCCF6092C6008091C00085FFFCCFBE
:107BA0005092C6008091C00085FFFCCF4092C60075
:107BB0008091C00085FFFCCF3092C6008091C0004C
:107BC00085FFFCCFB092C60088CF0E94763C8638F5
:107BD00008F4BDCF0E94763C0E94F33C7ECF0E9409
:107BE000763C803809F49CC0813809F40BC1823896
:107BF00009F430C1883909F48FC080E00E94C73C85
:107C00006CCF84E10E94BD3C0E94F33C66CF85E0CE
:107C10000E94BD3C0E94F33C60CF0E94763C809362
:107C200006010E94763C809307010E94F33C55CFE9
:107C30000E94763C803309F411C183E00E94BD3C70
:107C400080E00E94C73C49CF0E94763C80930902A5
:107C50000E94763C8093080280910C028E7F809374
:107C60000C020E94763C853409F409C18091080217
:107C700090910902892B89F000E010E00E94763C87
:107C8000F801E85FFE4F80830F5F1F4F809108026D
:107C9000909109020817190788F30E94763C8032F8
:107CA00009F045CF80910C0280FFF5C0609106017C
:107CB00070910701660F771F7093070160930601AB
:107CC000A0910802B09109021097C9F0E8E0F1E034
:107CD0009B01AD014E0F5F1FF999FECF32BD21BD53
:107CE000819180BDFA9AF99A2F5F3F4FE417F5070B
:107CF00099F76A0F7B1F70930701609306018091CB
:107D0000C00085FFFCCFF092C6008091C00085FFC7
:107D1000FCCFB092C600E1CE83E00E94C73CDDCE2E
:107D200082E00E94C73CD9CE0E94763C8093090233
:107D30000E94763C80930802809106019091070191
:107D4000880F991F90930701809306010E94763C4B
:107D5000853409F49AC080910C028E7F80930C02C6
:107D60000E94763C803209F0B8CE8091C00085FF39
:107D7000FCCFF092C600A0910802B09109021097C2
:107D8000C1F180910C02082F0170182F1695117007
:107D9000E0910601F0910701AF014F5F5F4FBA011B
:107DA00020E030E00023B1F4112339F49491809164
:107DB000C00085FFFCCF9093C6002F5F3F4FCB01E3
:107DC0000196FA012A173B0780F4BC014F5F5F4F11
:107DD000002351F3F999FECFF2BDE1BDF89A90B5B9
:107DE0008091C00085FFFCCFE6CF709307016093C0
:107DF00006018091C00085FDE5CE8091C00085FF21
:107E0000F8CFE0CE81E00E94C73C67CE0E94763C6E
:107E1000803209F08CCE8091C00085FFFCCFF092BB
:107E2000C6008091C00085FFFCCFE092C600809123
:107E3000C00085FFFCCFD092C6008091C00085FFB6
:107E4000FCCFC092C6008091C00085FFFCCFB092ED
:107E5000C60043CE80E10E94C73C3FCE0E94763CE4
:107E60000E94763C182F0E94763C112309F483C0AF
:107E7000113009F484C08FE00E94C73C2ECE80915F
:107E80000C02816080930C02F1CE80910C02816023
:107E900080930C0265CF809107018823880F880B9F
:107EA0008A2180930B028091060190910701880F2F
:107EB000991F90930701809306018091080280FF2B
:107EC00009C08091080290910902019690930902DD
:107ED00080930802F894F999FECF1127E0910601EA
:107EE000F0910701C8E0D1E0809108029091090269
:107EF000103091F40091570001700130D9F303E084
:107F000000935700E8950091570001700130D9F3B4
:107F100001E100935700E8950990199000915700EE
:107F200001700130D9F301E000935700E8951395F3
:107F3000103498F011270091570001700130D9F3E7
:107F400005E000935700E89500915700017001305B
:107F5000D9F301E100935700E8953296029709F0B2
:107F6000C7CF103011F00296E5CF11248091C000E8
:107F700085FFC5CEC8CE8EE10E94C73CAECD85E957
:0A7F80000E94C73CAACDF894FFCF81
:027F8A00800075
:040000030000780081
:00000001FF
