:100000000C945E000C9486000C9486000C94860080
:100010000C9486000C9486000C9486000C94450683
:100020000C9486000C9486000C9486000C94860038
:100030000C9486000C9486000C9486000C94860028
:100040000C94A1060C9486000C9486000C948600F7
:100050000C9486000C9486000C9486000C94860008
:100060000C94EB060C94860000000000240027008E
:100070002A0000000008000201000003040700003D
:10008000000000000000010204081020408001026E
:1000900004081020010204081020000000002500C0
:1000A00028002B00040404040404040402020202D5
:1000B00002020303030303030200190811241FBEF5
:1000C000CFEFD8E0DEBFCDBF11E0A0E0B1E0E4ECBF
:1000D000F7E102C005900D92A232B107D9F722E0F4
:1000E000A2E2B1E001C01D92AD30B207E1F710E02D
:1000F000CEE5D0E004C02197FE010E94280ACD354C
:10010000D107C9F70E942D080C94E00B0C94000055
:10011000CF92DF92EF92FF920F931F93CF93DF93D3
:100120006C017A018B01C0E0D0E0CE15DF0589F0CB
:10013000D8016D918D01D601ED91FC910190F08176
:10014000E02DC6010995892B11F47E0102C021968C
:10015000ECCFC701DF91CF911F910F91FF90EF90EE
:10016000DF90CF90089590E0FC01EE58FF4F34915E
:10017000FC01EA57FF4F2491FC01EC55FF4FE4913D
:10018000EE2309F43BC0332339F1333091F038F4D6
:100190003130A9F0323001F584B58F7D12C037308F
:1001A00091F03830A1F03430B9F4809180008F7D27
:1001B00003C0809180008F77809380000DC084B54C
:1001C0008F7784BD09C08091B0008F7703C0809184
:1001D000B0008F7D8093B000F0E0EE0FFF1FE65679
:1001E000FF4FA591B4918FB7F894EC91611103C0C2
:1001F00020952E2301C02E2B2C938FBF0895909114
:100200000001981324C0E8EBF0E0E4919FEF909395
:100210000001E130B9F098F0E230C9F4909170003B
:100220009D7F9093700091E09093B0009091B10009
:10023000987F94609093B1001092B30008C0109220
:100240006E0005C090916F009D7F90936F0060E0FD
:100250000C94B300CF93DF9390E0FC01EA57FF4F7B
:100260002491FC01EC55FF4F8491882361F190E0CB
:10027000880F991FFC01E859FF4FC591D491FC01EB
:10028000E656FF4FA591B491611109C09FB7F8944C
:100290008881209582238883EC912E230BC06230C5
:1002A00061F49FB7F8943881822F809583238883E7
:1002B000EC912E2B2C939FBF06C08FB7F894E8814A
:1002C0002E2B28838FBFDF91CF9108953F924F92BD
:1002D0005F926F927F928F929F92AF92BF92CF92D6
:1002E000DF92EF92FF920F931F93CF93DF9300D093
:1002F00000D0CDB7DEB7209100012A3021F02F3F8A
:1003000009F02CC204C0E8EBF0E0349076C02AE09B
:1003100020930001E8EBF0E0E491EF3F09F41EC206
:10032000E13011F1E23009F443C0E11165C014BCC1
:1003300015BC24B5226024BD25B5216025BDEEEA9B
:10034000F0E0E491F0E0EE0FFF1FE656FF4F25913D
:1003500034913093F3012093F201E0E9F0E0E4916D
:10036000E093F101312C4BC010928000109281007B
:1003700020918100286020938100209181002160DC
:1003800020938100EEEAF0E0E491F0E0EE0FFF1F31
:10039000E656FF4F259134913093F0012093EF0101
:1003A000E0E9F0E0E491E093EE013324339427C0D8
:1003B0001092B0001092B1002091B0002260209302
:1003C000B0002091B10021602093B100EEEAF0E08E
:1003D000E491F0E0EE0FFF1FE656FF4F25913491B8
:1003E0003093ED012093EC01E0E9F0E0E491E0933B
:1003F000EB01B2E03B2E03C03E2E37FCAFC12A0119
:100400003B018C0161E08AE00E942A014801A12C95
:10041000B12C832D8D7F09F0BBC060E079E08DE3C6
:1004200090E0A50194010E94EA0929833A834B8355
:100430005C8369017A0121E0C21AD108E108F10860
:100440008FEFC816D104E104F10409F008F44CC0A0
:1004500060E271EA87E090E0A50194010E94EA0958
:1004600069017A01E1E0CE1AD108E108F108F2E071
:100470003F1220C02FEFC216D104E104F10409F0AD
:1004800008F46AC168E478EE81E090E0A501940187
:100490000E94EA0969017A0181E0C81AD108E108DD
:1004A000F108EFEFCE16D104E104F10409F0D0F524
:1004B00083E067C0FFEFCF16D104E104F104B1F08F
:1004C000A8F064E274EF80E090E0A50194010E943E
:1004D000EA0969017A0181E0C81AD108E108F10846
:1004E000332009F4DFC02FC181E001C082E0332056
:1004F000A1F047C089819A81AB81BC812AE0B59582
:10050000A795979587952A95D1F76C017D0121E0F4
:10051000C21AD108E108F10885E095B5987F892BCA
:1005200085BD6FC064E274EF80E090E0A5019401A6
:100530000E94EA0969017A01F1E0CF1AD108E108C5
:10054000F1082FEFC216D104E104F10409F008F418
:10055000A7C062E17AE780E090E0A50194010E94E3
:10056000EA0969017A01E1E0CE1AD108E108F1084F
:10057000FFEFCF16D104E104F10411F008F0B4C08C
:1005800085E09091B100987F892B8093B10039C0AC
:1005900060E079E08DE390E0A50194010E94EA0912
:1005A00069017A0181E0C81AD108E108F108C11493
:1005B000D104E1E0EE06F10488F064E274EF80E03B
:1005C00090E0A50194010E94EA0969017A01F1E035
:1005D000CF1AD108E108F10893E001C091E021E0D1
:1005E00032120FC080918100887F892B8093810017
:1005F000411451046104710449F42FEF3FEFA90144
:100600002DC0411451046104710471F0D801AA0F86
:10061000BB1FA30192010E94090A28EE33E040E0CB
:1006200050E00E94C80903C02FEF3FEFA90181E00D
:100630003816A1F0E2E03E1619F131108FC0C7BCA8
:100640002093FC013093FD014093FE015093FF0184
:1006500080916E00826080936E0080C0D09289008D
:10066000C09288002093F8013093F9014093FA0179
:100670005093FB0180916F00826080936F006EC089
:10068000C092B3002093F4013093F5014093F6013A
:100690005093F701809170008260809370005EC07B
:1006A00084E06FCFFFEFCF16D104E104F104D1F065
:1006B000C8F069E07DE380E090E0A50194010E942C
:1006C000EA0969017A0181E0C81AD108E108F10854
:1006D000EFEFCE16D104E104F10411F008F00ACFD7
:1006E00084E01BCF83E019CF69E07DE380E090E0F8
:1006F000A50194010E94EA0969017A0181E0C81A02
:10070000D108E108F108EFEFCE16D104E104F104BD
:10071000C1F0B8F089819A81AB81BC814AE0B5957E
:10072000A795979587954A95D1F76C017D0121E0B2
:10073000C21AD108E108F108332009F4EDCE87E0B0
:1007400020CF86E0D4CEFFEFCF16D104E104F10430
:1007500009F050F684E0CBCE82E013CF0F900F90DB
:100760000F900F90DF91CF911F910F91FF90EF901D
:10077000DF90CF90BF90AF909F908F907F906F90C1
:100780005F904F903F9008953FB7F89480916A0131
:1007900090916B01A0916C01B0916D0126B5A89B61
:1007A00005C02F3F19F00196A11DB11D3FBFBA2F03
:1007B000A92F982F8827820F911DA11DB11DBC0163
:1007C000CD0143E0660F771F881F991F4A95D1F727
:1007D00008958F929F92AF92BF92CF92DF92EF9245
:1007E000FF926B017C010E94C4034B015C01C114A8
:1007F000D104E104F104F1F00E94C403DC01CB0157
:1008000088199909AA09BB09883E9340A105B10539
:1008100070F321E0C21AD108E108F10888EE880ED1
:1008200083E0981EA11CB11CC114D104E104F104A1
:1008300019F7DDCFFF90EF90DF90CF90BF90AF9092
:100840009F908F90089585ED8093BC008091BC00AF
:1008500084FDFCCF1092C601089540914401262FDB
:1008600030E0240F311D21323105DCF42091C60126
:100870002430C9F4FC0180E090E0861758F43091F0
:1008800044012191DC01AE5DBE4FA30FB11D2C933D
:100890000196F3CF80914401680F6093440180E09A
:1008A000089581E0089582E008950895E0917F0120
:1008B00080917E01E81730F4F0E0E058FE4F80812F
:1008C00090E008958FEF9FEF089590917F018091C0
:1008D0007E01981750F4E92FF0E0E058FE4F208198
:1008E00030E09F5F90937F0102C02FEF3FEFC9017F
:1008F000089580917E0190E020917F01821B9109F3
:100900000895CF92DF92EF92FF920F931F93CF93B0
:10091000DF937C01262F972F8A018091EA0188239B
:1009200091F0C62FD72F6E01C40ED51ECC15DD0554
:1009300071F06991D701ED91FC910190F081E02D6A
:10094000C7010995F3CF642F822F0E942D04C8019F
:10095000DF91CF911F910F91FF90EF90DF90CF909B
:100960000895CF93DF931F92CDB7DEB769832091AF
:10097000EA012223D1F02091E701203240F021E06A
:1009800030E0FC013383228380E090E015C0809149
:10099000E801E82FF0E0E953FE4F998190838F5FE3
:1009A0008093E8018093E70105C061E0CE010196E4
:1009B0000E942D0481E090E00F90DF91CF91089587
:1009C000CF93DF93C0E0D0E0209741F140E050E0CA
:1009D000BA0184EF91E00E94660160E089E00E9424
:1009E000B30060E088E00E94B30061E087E00E940D
:1009F000B30064EF71E080E090E00E94E9038AE0D8
:100A00000E94FF0060E087E00E94B30064EF71E0A5
:100A100080E090E00E94E9032196D6CFDF91CF914C
:100A20000895FF920F931F93CF93DF93F82EC0E0AA
:100A3000D0E0062F10E0B8010C2E02C07595679526
:100A40000A94E2F7617077278F2D0E94B30061E06E
:100A500085E00E94B30060E085E00E94B30021962B
:100A6000C830D10541F7DF91CF911F910F91FF90D1
:100A70000895CF93C82F60E084E00E94B3006C2FEC
:100A800086E00E94110561E084E0CF910C94B300F0
:100A9000CF93C82F60E084E00E94B3006C2F83E006
:100AA0000E94110561E084E0CF910C94B300CF93D4
:100AB000DF93EC016AE070E00E94B40960317105D7
:100AC00028F4FB01EF5FFE4F808101C084E90E94A2
:100AD0004805CE016AE070E00E94B40980319105BA
:100AE00028F4FC01EF5FFE4F808101C084E90E9481
:100AF00039056AE070E080E090E0DF91CF910C94DE
:100B0000E903CF93DF93C0910C0281E08093EA0167
:100B1000C093E9011092E8011092E70166E080E0DD
:100B200092E00E94B1048091E701813208F045C053
:100B30009091C6019111FCCF92E09093C601109262
:100B4000C5019FEF9093C4011092C3018093C2012D
:100B5000A7ECB1E022EA31E0F9019E2F921B981731
:100B600018F49D919193F9CF1092A1018091A10168
:100B7000CC0FC82BC093A1018091A001813061F4FA
:100B80001092A0018091A1018093BB008091BC00D4
:100B900083FDF8CF85EC01C085EE8093BC00809189
:100BA000C6018230E1F38091C4018F3F31F0809122
:100BB000C401803211F08091C4011092E8011092BA
:100BC000E7011092EA0180910C029091C601911107
:100BD000FCCF91E09093C6019093C5012FEF209335
:100BE000C4011092C30122E02093C2019093A1019D
:100BF0009091A101880F892B8093A1018091A00180
:100C0000813061F41092A0018091A1018093BB001A
:100C10008091BC0083FDF8CF85EC01C085EE809308
:100C2000BC008091C6018130E1F38091C301833023
:100C300018F48091C30101C083E0A2EAB1E020E88A
:100C400031E0F9019E2F921B981718F49D91919312
:100C5000F9CF10927F0180937E0180E092E00E94A4
:100C60006504EC0180E092E00E94650420E030E041
:100C7000382FC22BD32B80E092E00E946504CE0176
:100C8000DF91CF9108950E94DB0B1F920F920FB658
:100C90000F9211242F933F934F935F936F937F9302
:100CA0008F939F93AF93BF93EF93FF938091F40142
:100CB0009091F501A091F601B091F701892B8A2B53
:100CC0008B2B51F18091EB01E091EC01F091ED0162
:100CD0009081892780838091F4019091F501A09102
:100CE000F601B091F701181619061A061B06C4F48E
:100CF0008091F4019091F501A091F601B091F70176
:100D00000197A109B1098093F4019093F501A09393
:100D1000F601B093F70104C0809100010E94FF002A
:100D2000FF91EF91BF91AF919F918F917F916F91C3
:100D30005F914F913F912F910F900FBE0F901F9099
:100D400018951F920F920FB60F9211242F933F9375
:100D50008F939F93AF93BF9380916E0190916F019A
:100D6000A0917001B09171013091690126E0230FCB
:100D70002D3720F40296A11DB11D05C029E8230FCF
:100D80000396A11DB11D2093690180936E0190937C
:100D90006F01A0937001B093710180916A019091ED
:100DA0006B01A0916C01B0916D010196A11DB11D67
:100DB00080936A0190936B01A0936C01B0936D01D5
:100DC000BF91AF919F918F913F912F910F900FBE47
:100DD0000F901F9018951F920F920FB60F9211242B
:100DE0002F933F934F935F936F937F938F939F9333
:100DF000AF93BF93EF93FF938091B900887F8036C4
:100E000009F49CC068F5883209F45BC090F4803125
:100E100009F454C038F4882309F4F6C0883009F482
:100E20004DC0F6C0883109F44CC0803209F45DC071
:100E3000EFC0803409F468C048F4803309F455C029
:100E4000883309F0E5C08093C401D8C0803509F427
:100E50004FC0883509F45DC0883409F0D9C0D6C0C8
:100E6000883909F4C7C0A8F4883709F467C038F492
:100E7000883609F463C0803709F460C0C9C0883877
:100E800009F4B8C0803909F45FC0803809F0C0C0E7
:100E90005BC0803B09F486C038F4803A09F466C030
:100EA000883A09F47FC0B4C0803C09F4A7C0883CEC
:100EB00009F4A4C0883B09F48AC0AAC08091A101AA
:100EC00010C09091C3018091C201981770F5E09114
:100ED000C30181E08E0F8093C301F0E0EE55FE4F19
:100EE00080818093BB0085EC86C08093C4018EC056
:100EF000E091C30181E08E0F8093C3018091BB001C
:100F0000F0E0EE55FE4F80839091C3018091C201C5
:100F10006EC0E091C30181E08E0F8093C301809188
:100F2000BB00F0E0EE55FE4F80838091C50181113A
:100F30006DC081E08093A00184EA61C083E080936A
:100F4000C60110926801CFCF80916801803208F00D
:100F500051C0E091680181E08E0F8093680180911B
:100F6000BB00F0E0E85BFE4F8083BDCF85EC809353
:100F7000BC001092C60180916801803230F4E0918B
:100F80006801F0E0E85BFE4F10826091680170E05C
:100F9000E0914601F091470188E491E009951092B3
:100FA000680136C084E08093C6011092450110921A
:100FB0004401E0914201F09143010995809144017F
:100FC000811105C081E08093440110922201E091DB
:100FD000450181E08E0F80934501F0E0EE5DFE4F0C
:100FE00080818093BB0090914501809144019817C6
:100FF00008F479CF85E88093BC000AC085EC809323
:10100000BC001092C60104C01092C4010E942304C7
:10101000FF91EF91BF91AF919F918F917F916F91D0
:101020005F914F913F912F910F900FBE0F901F90A6
:101030001895E0E0F2E01382128288EE93E0A0E0DF
:10104000B0E084839583A683B78385E191E09183A3
:1010500080838AE580930C020895789484B5826039
:1010600084BD84B5816084BD85B5826085BD85B54C
:10107000816085BD80916E00816080936E001092CA
:101080008100809181008260809381008091810045
:1010900081608093810080918000816080938000D6
:1010A0008091B10084608093B1008091B000816034
:1010B0008093B00080917A00846080937A00809160
:1010C0007A00826080937A0080917A008E7F80938C
:1010D0007A0080917A00806880937A001092C10033
:1010E00061E08AE00E942A0161E087E00E942A0113
:1010F00061E088E00E942A0161E089E00E942A0103
:1011000061E083E00E942A0161E086E00E942A01FA
:1011100061E084E00E942A0161E085E00E942A01EA
:1011200060E081E10E942A0110927F0110927E010D
:101130001092E8011092E7011092C60181E08093BD
:10114000C5011092A00161E082E10E94B30061E05C
:1011500083E10E94B3008091B9008E7F8093B90033
:101160008091B9008D7F8093B90080E28093B800B0
:1011700085E48093BC0083E4F82EC1E0D0E000E079
:1011800010E00E948105BC0180E090E00E94E00A2E
:101190002AE037ED43EA5CE30E946E0B23E333E978
:1011A00048E853E40E943D0A0E94AA0A6B0170932A
:1011B00079016093780126E4C216D10484F461E0D9
:1011C00088E00E94B30060E089E00E94B30060E024
:1011D00087E00E94B300C6010E945705ECCF48EE9D
:1011E00053E060E070E084EF91E00E9466012FB769
:1011F000F89480916E0190916F01A0917001B0916F
:1012000071012FBF80937A0190937B01A0937C01A1
:10121000B0937D010E948105BC0180E090E00E94B6
:10122000E00A2AE037ED43EA5CE30E946E0B23E319
:1012300033E948E853E40E943D0A0E94AA0A7093E9
:10124000790160937801F0927C0080917A0080644B
:1012500080937A0080917A0086FDFCCF20917800FF
:101260008091790030E0382B30937701209376011C
:10127000809178019091790187549109049718F42D
:10128000253F31401CF4C12CD12C44C061E087E0E3
:101290000E94B30060E089E00E94B30060E088E053
:1012A0000E94B3002FB7F89480916E0190916F0166
:1012B000A0917001B09171012FBF80937201909342
:1012C0007301A0937401B093750140917A0150911C
:1012D0007B0160917C0170917D01841B950BA60BB5
:1012E000B70B80369A4EA105B105A8F1CE010E9438
:1012F00057058091720190917301A0917401B09192
:10130000750180937A0190937B01A0937C01B09347
:101310007D0121C0C114D104F1F048EE53E060E03A
:1013200070E088EE93E00E94660161E089E00E942F
:10133000B30060E088E00E94B30060E087E00E94B4
:10134000B30084E90E94390584E90E9448058FEFC3
:10135000C81AD80ADFCF0E94E0040115110509F46C
:1013600010CF0E9400000DCF97FB072E16F40094BB
:1013700007D077FD09D00E94140A07FC05D03EF47F
:10138000909581959F4F0895709561957F4F089531
:10139000A1E21A2EAA1BBB1BFD010DC0AA1FBB1F79
:1013A000EE1FFF1FA217B307E407F50720F0A21BEB
:1013B000B30BE40BF50B661F771F881F991F1A9458
:1013C00069F760957095809590959B01AC01BD0182
:1013D000CF010895052E97FB1EF400940E94010A88
:1013E00057FD07D00E94C80907FC03D04EF40C94A7
:1013F000010A50954095309521953F4F4F4F5F4FD3
:10140000089590958095709561957F4F8F4F9F4F70
:1014100008950E942E0AA59F900DB49F900DA49F41
:10142000800D911D11240895AA1BBB1B51E107C01B
:10143000AA1FBB1FA617B70710F0A61BB70B881F64
:10144000991F5A95A9F780959095BC01CD010895F3
:10145000EE0FFF1F0590F491E02D0994A29FB001BB
:10146000B39FC001A39F700D811D1124911DB29FD8
:10147000700D811D1124911D08955058BB27AA2776
:101480000E94550A0C94340B0E94260B38F00E94DF
:101490002D0B20F039F49F3F19F426F40C94230B04
:1014A0000EF4E095E7FB0C941D0BE92F0E94450B11
:1014B00058F3BA17620773078407950720F079F489
:1014C000A6F50C94670B0EF4E0950B2EBA2FA02D09
:1014D0000B01B90190010C01CA01A0011124FF27E1
:1014E000591B99F0593F50F4503E68F11A16F040DC
:1014F000A22F232F342F4427585FF3CF46953795DB
:101500002795A795F0405395C9F77EF41F16BA0B9F
:10151000620B730B840BBAF09150A1F0FF0FBB1F4D
:10152000661F771F881FC2F70EC0BA0F621F731F96
:10153000841F48F4879577956795B795F7959E3FF3
:1015400008F0B0CF9395880F08F09927EE0F979584
:10155000879508950E94B10A6894B1110C94680BA4
:1015600008950E944D0B88F09F5798F0B92F992746
:10157000B751B0F0E1F0660F771F881F991F1AF07E
:10158000BA95C9F714C0B13091F00E94670BB1E071
:1015900008950C94670B672F782F8827B85F39F070
:1015A000B93FCCF3869577956795B395D9F73EF417
:1015B00090958095709561957F4F8F4F9F4F0895BF
:1015C000E89409C097FB3EF49095809570956195DD
:1015D0007F4F8F4F9F4F9923A9F0F92F96E9BB2793
:1015E0009395F695879577956795B795F111F8CF0F
:1015F000FAF4BB0F11F460FF1BC06F5F7F4F8F4F7A
:101600009F4F16C0882311F096E911C0772321F06F
:101610009EE8872F762F05C0662371F096E8862F07
:1016200070E060E02AF09A95660F771F881FDAF75E
:10163000880F9695879597F9089597F99F6780E8A1
:1016400070E060E008959FEF80EC089500240A9414
:101650001616170618060906089500240A9412168D
:101660001306140605060895092E0394000C11F4C0
:10167000882352F0BB0F40F4BF2B11F460FF04C06D
:101680006F5F7F4F8F4F9F4F089557FD9058440FC6
:10169000551F59F05F3F71F04795880F97FB991FD1
:1016A00061F09F3F79F0879508951216130614068E
:1016B000551FF2CF4695F1DF08C01616170618061B
:1016C000991FF1CF86957105610508940895E894F6
:1016D000BB2766277727CB0197F908950E94810BD6
:1016E0000C94340B0E94260B38F00E942D0B20F036
:1016F000952311F00C941D0B0C94230B11240C94C6
:10170000680B0E94450B70F3959FC1F3950F50E055
:10171000551F629FF001729FBB27F00DB11D639FA3
:10172000AA27F00DB11DAA1F649F6627B00DA11D49
:10173000661F829F2227B00DA11D621F739FB00DEF
:10174000A11D621F839FA00D611D221F749F33275F
:10175000A00D611D231F849F600D211D822F762FF8
:101760006A2F11249F5750409AF0F1F088234AF0D5
:10177000EE0FFF1FBB1F661F771F881F9150504041
:10178000A9F79E3F510580F00C941D0B0C94680B3B
:101790005F3FE4F3983ED4F3869577956795B795C8
:1017A000F795E7959F5FC1F7FE2B880F911D9695E2
:1017B000879597F9089581E090E0F8940C94E00BF8
:0417C000F894FFCFCB
:1017C400FFFA60DCF466B6BEE0FEF6EE3E9A7C9E5E
:1017D4008E00000000B104810479046504560455A8
:0217E4000400FF
:00000001FF
