:100000000C945D000C9485000C9485000C94850084
:100010000C9485000C9485000C9485000C9485004C
:100020000C9485000C9485000C9485000C9485003C
:100030000C9485000C9485000C9485000C9485002C
:100040000C9446020C9485000C9485000C94850059
:100050000C9485000C9485000C9485000C9485000C
:100060000C9490020C9485000000000024002700EE
:100070002A0000000000250028002B0004040404CE
:100080000404040402020202020203030303030342
:10009000010204081020408001020408102001021F
:1000A00004081020000000080002010000030407FB
:1000B0000000000000000000BE0311241FBECFEFAF
:1000C000D8E0DEBFCDBF11E0A0E0B1E0E6EFFEE09A
:1000D00002C005900D92A032B107D9F721E0A0E24D
:1000E000B1E001C01D92AC3EB207E1F710E0CDE5F2
:1000F000D0E004C02197FE010E94D005CC35D10785
:10010000C9F70E94D2030C9479070C940000CF9297
:10011000DF92EF92FF920F931F93CF93DF936C01C7
:100120007A018B01C0E0D0E0CE15DF0589F0D8015F
:100130006D918D01D601ED91FC910190F081E02D42
:10014000C6010995892B11F47E0102C02196ECCFDE
:10015000C701DF91CF911F910F91FF90EF90DF903A
:10016000CF90089590E0FC01EC55FF4F3491FC01D5
:10017000E057FF4F2491FC01E458FF4FE491EE2338
:1001800009F43BC0332339F1333091F038F4313086
:10019000A9F0323001F584B58F7D12C0373091F06F
:1001A0003830A1F03430B9F4809180008F7D03C0E5
:1001B000809180008F77809380000DC084B58F7709
:1001C00084BD09C08091B0008F7703C08091B000DA
:1001D0008F7D8093B000F0E0EE0FFF1FEE58FF4FD1
:1001E000A591B4918FB7F894EC91611103C020955B
:1001F0002E2301C02E2B2C938FBF0895CF93DF9316
:1002000090E0FC01E057FF4F2491FC01E458FF4FC0
:100210008491882361F190E0880F991FFC01E859CF
:10022000FF4FC591D491FC01EE58FF4FA591B491B9
:10023000611109C09FB7F894888120958223888333
:10024000EC912E230BC0623061F49FB7F894388193
:10025000822F809583238883EC912E2B2C939FBF34
:1002600006C08FB7F894E8812E2B28838FBFDF91CB
:10027000CF9108953FB7F89480916C0190916D01F2
:10028000A0916E01B0916F0126B5A89B05C02F3FCC
:1002900019F00196A11DB11D3FBFBA2FA92F982FAC
:1002A0008827820F911DA11DB11DBC01CD0143E026
:1002B000660F771F881F991F4A95D1F7089585ED1E
:1002C0008093BC008091BC0084FDFCCF1092B801EB
:1002D000089540914201262F30E0240F311D213234
:1002E0003105DCF42091B8012430C9F4FC0180E030
:1002F00090E0861758F4309142012191DC01A05E14
:10030000BE4FA30FB11D2C930196F3CF80914201F4
:10031000680F6093420180E0089581E0089582E0D3
:1003200008950895E091710180917001E81730F40B
:10033000F0E0EE58FE4F808190E008958FEF9FEF40
:1003400008959091710180917001981750F4E92FF0
:10035000F0E0EE58FE4F208130E09F5F90937101F6
:1003600002C02FEF3FEFC90108958091700190E026
:1003700020917101821B91090895CF92DF92EF9233
:10038000FF920F931F93CF93DF937C01262F972F1C
:100390008A018091DC01882391F0C62FD72F6E014E
:1003A000C40ED51ECC15DD0571F06991D701ED9114
:1003B000FC910190F081E02DC7010995F3CF642FE6
:1003C000822F0E946901C801DF91CF911F910F9187
:1003D000FF90EF90DF90CF900895CF93DF931F921F
:1003E000CDB7DEB769832091DC012223D1F02091C3
:1003F000D901203240F021E030E0FC013383228338
:1004000080E090E015C08091DA01E82FF0E0E75439
:10041000FE4F998190838F5F8093DA018093D90199
:1004200005C061E0CE0101960E94690181E090E083
:100430000F90DF91CF910895FF920F931F93CF9369
:10044000DF93F82EC0E0D0E0062F10E0B8010C2EAC
:1004500002C0759567950A94E2F7617077278F2D32
:100460000E94B20061E085E00E94B20060E085E099
:100470000E94B2002196C830D10541F7DF91CF919B
:100480001F910F91FF9008950E9474071F920F9281
:100490000FB60F9211242F933F938F939F93AF9397
:1004A000BF938091680190916901A0916A01B09118
:1004B0006B013091670126E0230F2D3720F402965F
:1004C000A11DB11D05C029E8230F0396A11DB11D73
:1004D000209367018093680190936901A0936A015A
:1004E000B0936B0180916C0190916D01A0916E01B0
:1004F000B0916F010196A11DB11D80936C01909385
:100500006D01A0936E01B0936F01BF91AF919F9168
:100510008F913F912F910F900FBE0F901F901895C4
:100520001F920F920FB60F9211242F933F934F9368
:100530005F936F937F938F939F93AF93BF93EF934B
:10054000FF938091B900887F803609F49CC068F5DC
:10055000883209F45BC090F4803109F454C038F457
:10056000882309F4F6C0883009F44DC0F6C08831FC
:1005700009F44CC0803209F45DC0EFC0803409F446
:1005800068C048F4803309F455C0883309F0E5C0E9
:100590008093B601D8C0803509F44FC0883509F47E
:1005A0005DC0883409F0D9C0D6C0883909F4C7C005
:1005B000A8F4883709F467C038F4883609F463C0B2
:1005C000803709F460C0C9C0883809F4B8C08039E0
:1005D00009F45FC0803809F0C0C05BC0803B09F4FB
:1005E00086C038F4803A09F466C0883A09F47FC0BE
:1005F000B4C0803C09F4A7C0883C09F4A4C0883B7F
:1006000009F48AC0AAC08091930110C09091B501ED
:100610008091B401981770F5E091B50181E08E0FDB
:100620008093B501F0E0EC56FE4F80818093BB00D3
:1006300085EC86C08093B6018EC0E091B50181E063
:100640008E0F8093B5018091BB00F0E0EC56FE4F19
:1006500080839091B5018091B4016EC0E091B501A5
:1006600081E08E0F8093B5018091BB00F0E0EC56E5
:10067000FE4F80838091B70181116DC081E080932E
:10068000920184EA61C083E08093B8011092660110
:10069000CFCF80916601803208F051C0E0916601B1
:1006A00081E08E0F809366018091BB00F0E0EA5BF1
:1006B000FE4F8083BDCF85EC8093BC001092B801C3
:1006C00080916601803230F4E0916601F0E0EA5BEF
:1006D000FE4F10826091660170E0E0914401F0915C
:1006E000450186E491E009951092660136C084E0E8
:1006F0008093B8011092430110924201E0914001B1
:10070000F0914101099580914201811105C081E07C
:100710008093420110922001E091430181E08E0F0D
:1007200080934301F0E0E05EFE4F80818093BB0048
:100730009091430180914201981708F479CF85E8A0
:100740008093BC000AC085EC8093BC001092B80175
:1007500004C01092B6010E945F01FF91EF91BF911A
:10076000AF919F918F917F916F915F914F913F9149
:100770002F910F900FBE0F901F901895EFEDF1E0A5
:100780001382128288EE93E0A0E0B0E08483958328
:10079000A683B78384E191E0918380838AE5809387
:1007A000EB010895789484B5826084BD84B581603E
:1007B00084BD85B5826085BD85B5816085BD80912C
:1007C0006E00816080936E001092810080918100A4
:1007D000826080938100809181008160809381009C
:1007E000809180008160809380008091B10084605E
:1007F0008093B1008091B00081608093B0008091BF
:100800007A00846080937A0080917A00826080937D
:100810007A0080917A008E7F80937A0080917A00AE
:10082000806880937A001092C10061E087E00E94A6
:10083000FE0061E088E00E94FE0061E089E00E9425
:10084000FE0061E083E00E94FE0061E086E00E941D
:10085000FE0061E084E00E94FE0061E085E00E940D
:10086000FE0060E081E10E94FE0010927101109292
:1008700070011092DA011092D9011092B80181E052
:100880008093B7011092920161E082E10E94B20070
:1008900061E083E10E94B2008091B9008E7F809375
:1008A000B9008091B9008D7F8093B90080E2809378
:1008B000B80085E48093BC0066246A9440E0A42ECE
:1008C00040E0B42E52E0952E25EE822E35EC732EAC
:1008D00060E087E00E94B20060E089E00E94B20020
:1008E00061E088E00E94B200C091EB0181E080935A
:1008F000DC01C093DB011092DA011092D90166E0AD
:100900008FED91E00E94ED018091D901813208F0D4
:1009100044C09091B8019111FCCF9092B80110920F
:10092000B7016092B6011092B5018093B401A9EBB2
:10093000B1E0E4E9F1E09E2F24E931E0921B981741
:1009400018F49D919193F7CF1092930180919301A8
:10095000CC0FC82BC093930180919201813069F430
:1009600010929201809193018093BB008091BC0012
:1009700083FDF8CF7092BC0002C08092BC008091D1
:10098000B8018230E1F38091B6018F3F31F0809160
:10099000B601803211F08091B6011092DA01109206
:1009A000D9011092DC018091EB019091B801911175
:1009B000FCCF91E09093B8019093B7016092B6019B
:1009C0001092B5019092B40190939301909193018C
:1009D000880F892B8093930180919201813069F473
:1009E00010929201809193018093BB008091BC0092
:1009F00083FDF8CF7092BC0002C08092BC00809151
:100A0000B8018130E1F38091B501833018F4809111
:100A1000B50101C083E0A4E9B1E0E2E7F1E09E2F77
:100A200022E731E0921B981718F49D919193F7CF2C
:100A300010927101809370018FED91E00E94A101ED
:100A4000EC018FED91E00E94A101182F00E0C02B76
:100A5000D12B8FED91E00E94A101BE0180E090E0DA
:100A60000E9479062AE037ED43EA5CE30E9407071B
:100A700023E333E948E853E40E94D6050E94430685
:100A8000EB017093DE016093DD01CB016AE070E061
:100A90000E94A8056031710528F4FB01E050FF4F6A
:100AA000508002C094E9592E60E084E00E94B200B8
:100AB000652D83E00E941C0261E084E00E94B20088
:100AC000CE016AE070E00E94A8058031910528F40B
:100AD000FC01E050FF4FC08101C0C4E960E084E048
:100AE0000E94B2006C2F86E00E941C0261E084E04C
:100AF0000E94B2000E943A016B017C0184EF282E13
:100B000033243394412C512C0E943A01DC01CB0157
:100B10008C199D09AE09BF09883E9340A105B10516
:100B200058F031E0231A31084108510888EEC80E08
:100B300083E0D81EE11CF11C21143104410451044E
:100B400019F7A114B10409F4C3CE0E940000BCCE71
:100B500097FB072E16F4009407D077FD09D00E946A
:100B6000BC0507FC05D03EF4909581959F4F0895F4
:100B7000709561957F4F0895AA1BBB1B51E107C07B
:100B8000AA1FBB1FA617B70710F0A61BB70B881F1D
:100B9000991F5A95A9F780959095BC01CD010895AC
:100BA000EE0FFF1F0590F491E02D09945058BB27DC
:100BB000AA270E94EE050C94CD060E94BF0638F0CD
:100BC0000E94C60620F039F49F3F19F426F40C94D5
:100BD000BC060EF4E095E7FB0C94B606E92F0E94E4
:100BE000DE0658F3BA17620773078407950720F0EB
:100BF00079F4A6F50C9400070EF4E0950B2EBA2FAD
:100C0000A02D0B01B90190010C01CA01A001112412
:100C1000FF27591B99F0593F50F4503E68F11A16BE
:100C2000F040A22F232F342F4427585FF3CF46954F
:100C300037952795A795F0405395C9F77EF41F1671
:100C4000BA0B620B730B840BBAF09150A1F0FF0F3B
:100C5000BB1F661F771F881FC2F70EC0BA0F621F27
:100C6000731F841F48F4879577956795B795F79517
:100C70009E3F08F0B0CF9395880F08F09927EE0FAC
:100C80009795879508950E944A066894B1110C942F
:100C9000010708950E94E60688F09F5798F0B92F43
:100CA0009927B751B0F0E1F0660F771F881F991FA1
:100CB0001AF0BA95C9F714C0B13091F00E9400073C
:100CC000B1E008950C940007672F782F8827B85F4C
:100CD00039F0B93FCCF3869577956795B395D9F7F9
:100CE0003EF490958095709561957F4F8F4F9F4F03
:100CF0000895E89409C097FB3EF49095809570950F
:100D000061957F4F8F4F9F4F9923A9F0F92F96E957
:100D1000BB279395F695879577956795B795F111CC
:100D2000F8CFFAF4BB0F11F460FF1BC06F5F7F4F69
:100D30008F4F9F4F16C0882311F096E911C077237B
:100D400021F09EE8872F762F05C0662371F096E884
:100D5000862F70E060E02AF09A95660F771F881F53
:100D6000DAF7880F9695879597F9089597F99F6711
:100D700080E870E060E008959FEF80EC0895002423
:100D80000A941616170618060906089500240A94F0
:100D900012161306140605060895092E0394000C76
:100DA00011F4882352F0BB0F40F4BF2B11F460FF05
:100DB00004C06F5F7F4F8F4F9F4F089557FD90582E
:100DC000440F551F59F05F3F71F04795880F97FB0F
:100DD000991F61F09F3F79F08795089512161306C9
:100DE0001406551FF2CF4695F1DF08C016161706F8
:100DF0001806991FF1CF869571056105089408952D
:100E0000E894BB2766277727CB0197F908950E94BE
:100E10001A070C94CD060E94BF0638F00E94C60641
:100E200020F0952311F00C94B6060C94BC06112406
:100E30000C9401070E94DE0670F3959FC1F3950F95
:100E400050E0551F629FF001729FBB27F00DB11D4E
:100E5000639FAA27F00DB11DAA1F649F6627B00DDE
:100E6000A11D661F829F2227B00DA11D621F739FC7
:100E7000B00DA11D621F839FA00D611D221F749FD5
:100E80003327A00D611D231F849F600D211D822F1C
:100E9000762F6A2F11249F5750409AF0F1F0882343
:100EA0004AF0EE0FFF1FBB1F661F771F881F915070
:100EB0005040A9F79E3F510580F00C94B6060C9463
:100EC00001075F3FE4F3983ED4F3869577956795E5
:100ED000B795F795E7959F5FC1F7FE2B880F911D9A
:100EE0009695879597F9089581E090E0F8940C9491
:060EF0007907F894FFCF22
:100EF600FA60DCF466B6BEE0FEF6EE3E9A7C9E8EA6
:100F060000000000ED01BD01B501A10192019101B2
:107800000C94343C0C94513C0C94513C0C94513CE1
:107810000C94513C0C94513C0C94513C0C94513CB4
:107820000C94513C0C94513C0C94513C0C94513CA4
:107830000C94513C0C94513C0C94513C0C94513C94
:107840000C94513C0C94513C0C94513C0C94513C84
:107850000C94513C0C94513C0C94513C0C94513C74
:107860000C94513C0C94513C11241FBECFEFD8E036
:10787000DEBFCDBF11E0A0E0B1E0EAE8FFE702C063
:1078800005900D92A230B107D9F712E0A2E0B1E065
:1078900001C01D92AD30B107E1F70E942D3D0C945F
:1078A000C33F0C94003C982F95959595959595958B
:1078B000905D8F708A307CF0282F295A8091C0000B
:1078C00085FFFCCF9093C6008091C00085FFFCCF60
:1078D0002093C6000895282F205DF0CF982F809127
:1078E000C00085FFFCCF9093C6000895EF92FF92F1
:1078F0000F931F93EE24FF2487018091C00087FD22
:1079000017C00894E11CF11C011D111D81E2E8164D
:1079100081EAF80687E0080780E0180770F3E09135
:107920000401F091050109958091C00087FFE9CF1E
:107930008091C6001F910F91FF90EF9008950E94D3
:10794000763C982F8091C00085FFFCCF9093C600B5
:1079500091362CF490330CF09053892F089597555D
:10796000892F08951F930E949F3C182F0E949F3CCF
:107970001295107F810F1F9108951F93182F882350
:1079800021F00E94763C1150E1F71F9108951F935A
:10799000182F0E94763C803249F0809103018F5F5E
:1079A000809303018530C1F01F9108958091C0003C
:1079B00085FFFCCF84E18093C6008091C00085FFE5
:1079C000FCCF1093C6008091C00085FFFCCF80E102
:1079D0008093C6001F910895E0910401F091050184
:1079E00009951F9108950E94763C803241F0809164
:1079F00003018F5F80930301853081F008958091AA
:107A0000C00085FFFCCF84E18093C6008091C00058
:107A100085FFFCCF80E18093C6000895E0910401CA
:107A2000F09105010995089548EC50E08823A1F0F4
:107A30002D9A28EE33E0FA013197F1F721503040CA
:107A4000D1F72D9828EE33E0FA013197F1F7215064
:107A50003040D1F7815061F708953F924F925F9285
:107A60006F927F928F929F92AF92BF92CF92DF924E
:107A7000EF92FF920F931F93CF93DF93000082E06A
:107A80008093C00080E18093C4001092C50088E11B
:107A90008093C10086E08093C2005098589A259A3E
:107AA00081E00E94143D24E1F22E9EE1E92E85E959
:107AB000D82E0FE0C02E10E1B12EAA24A394B1E479
:107AC0009B2EA6E58A2EF2E57F2EE0E26E2E79E46B
:107AD000572E63E5462E50E5352E0E94763C8033C6
:107AE000B1F18133B9F1803409F46FC0813409F404
:107AF00076C0823409F485C0853409F488C08035A5
:107B000031F1823521F1813511F1853509F485C0D6
:107B1000863509F48DC0843609F496C0843709F49B
:107B200003C1853709F472C1863709F466C08091B4
:107B300003018F5F80930301853079F6E0910401A2
:107B4000F091050109950E94763C803351F60E9420
:107B5000F33CC3CF0E94763C803249F78091C0004D
:107B600085FFFCCFF092C6008091C00085FFFCCF5E
:107B70009092C6008091C00085FFFCCF8092C60025
:107B80008091C00085FFFCCF7092C6008091C0003C
:107B900085FFFCCF6092C6008091C00085FFFCCFBE
:107BA0005092C6008091C00085FFFCCF4092C60075
:107BB0008091C00085FFFCCF3092C6008091C0004C
:107BC00085FFFCCFB092C60088CF0E94763C8638F5
:107BD00008F4BDCF0E94763C0E94F33C7ECF0E9409
:107BE000763C803809F49CC0813809F40BC1823896
:107BF00009F430C1883909F48FC080E00E94C73C85
:107C00006CCF84E10E94BD3C0E94F33C66CF85E0CE
:107C10000E94BD3C0E94F33C60CF0E94763C809362
:107C200006010E94763C809307010E94F33C55CFE9
:107C30000E94763C803309F411C183E00E94BD3C70
:107C400080E00E94C73C49CF0E94763C80930902A5
:107C50000E94763C8093080280910C028E7F809374
:107C60000C020E94763C853409F409C18091080217
:107C700090910902892B89F000E010E00E94763C87
:107C8000F801E85FFE4F80830F5F1F4F809108026D
:107C9000909109020817190788F30E94763C8032F8
:107CA00009F045CF80910C0280FFF5C0609106017C
:107CB00070910701660F771F7093070160930601AB
:107CC000A0910802B09109021097C9F0E8E0F1E034
:107CD0009B01AD014E0F5F1FF999FECF32BD21BD53
:107CE000819180BDFA9AF99A2F5F3F4FE417F5070B
:107CF00099F76A0F7B1F70930701609306018091CB
:107D0000C00085FFFCCFF092C6008091C00085FFC7
:107D1000FCCFB092C600E1CE83E00E94C73CDDCE2E
:107D200082E00E94C73CD9CE0E94763C8093090233
:107D30000E94763C80930802809106019091070191
:107D4000880F991F90930701809306010E94763C4B
:107D5000853409F49AC080910C028E7F80930C02C6
:107D60000E94763C803209F0B8CE8091C00085FF39
:107D7000FCCFF092C600A0910802B09109021097C2
:107D8000C1F180910C02082F0170182F1695117007
:107D9000E0910601F0910701AF014F5F5F4FBA011B
:107DA00020E030E00023B1F4112339F49491809164
:107DB000C00085FFFCCF9093C6002F5F3F4FCB01E3
:107DC0000196FA012A173B0780F4BC014F5F5F4F11
:107DD000002351F3F999FECFF2BDE1BDF89A90B5B9
:107DE0008091C00085FFFCCFE6CF709307016093C0
:107DF00006018091C00085FDE5CE8091C00085FF21
:107E0000F8CFE0CE81E00E94C73C67CE0E94763C6E
:107E1000803209F08CCE8091C00085FFFCCFF092BB
:107E2000C6008091C00085FFFCCFE092C600809123
:107E3000C00085FFFCCFD092C6008091C00085FFB6
:107E4000FCCFC092C6008091C00085FFFCCFB092ED
:107E5000C60043CE80E10E94C73C3FCE0E94763CE4
:107E60000E94763C182F0E94763C112309F483C0AF
:107E7000113009F484C08FE00E94C73C2ECE80915F
:107E80000C02816080930C02F1CE80910C02816023
:107E900080930C0265CF809107018823880F880B9F
:107EA0008A2180930B028091060190910701880F2F
:107EB000991F90930701809306018091080280FF2B
:107EC00009C08091080290910902019690930902DD
:107ED00080930802F894F999FECF1127E0910601EA
:107EE000F0910701C8E0D1E0809108029091090269
:107EF000103091F40091570001700130D9F303E084
:107F000000935700E8950091570001700130D9F3B4
:107F100001E100935700E8950990199000915700EE
:107F200001700130D9F301E000935700E8951395F3
:107F3000103498F011270091570001700130D9F3E7
:107F400005E000935700E89500915700017001305B
:107F5000D9F301E100935700E8953296029709F0B2
:107F6000C7CF103011F00296E5CF11248091C000E8
:107F700085FFC5CEC8CE8EE10E94C73CAECD85E957
:0A7F80000E94C73CAACDF894FFCF81
:027F8A00800075
:040000030000780081
:00000001FF
