:100000000C9453000C947B000C947B000C947B00AC
:100010000C947B000C947B000C947B000C947B0074
:100020000C947B000C947B000C947B000C947B0064
:100030000C947B000C947B000C947B000C947B0054
:100040000C9405020C947B000C94D3010C94AD012C
:100050000C947B000C947B000C947B000C947B0034
:100060000C947B000C947B0000000000250028000D
:100070002B0000000000240027002A0004040404D0
:100080000404040402020202020203030303030342
:10009000010204081020408001020408102001021F
:1000A000040810208C0311241FBECFEFD8E0DEBF60
:1000B000CDBF11E0A0E0B1E0E0EDF7E002C00590B7
:1000C0000D92A232B107D9F721E0A2E2B1E001C05E
:1000D0001D92AA3CB207E1F710E0C3E5D0E004C0EE
:1000E0002197FE010E94DB03C235D107C9F70E94A8
:1000F0004F020C94E6030C940000CF92DF92EF9233
:10010000FF920F931F93CF93DF936C017A018B01C2
:10011000C0E0D0E0CE15DF0589F0D8016D918D01EA
:10012000D601ED91FC910190F081E02DC601099579
:10013000892B11F47E0102C02196ECCFC701DF911B
:10014000CF911F910F91FF90EF90DF90CF90089586
:10015000FC01918D828D981761F0828DDF01A80FCF
:10016000B11D5D968C91928D9F5F9F73928F90E0F1
:1001700008958FEF9FEF0895FC01918D828D981760
:1001800031F0828DE80FF11D858D90E008958FEF9D
:100190009FEF0895FC01918D228D892F90E0805C66
:1001A0009F4F821B91098F73992708958DE291E0EB
:1001B0000E94CA0021E0892B09F420E0822F0895D3
:1001C000FC01848DDF01A80FB11DA35ABF4F2C91F4
:1001D000848D90E001968F739927848FA689B789C3
:1001E0002C93A089B1898C9180648C93938D848D9C
:1001F000981306C00288F389E02D80818F7D80836B
:100200000895EF92FF920F931F93CF93DF93EC012A
:1002100081E0888F9B8D8C8D981305C0E889F989C2
:10022000808185FD24C0F62E0B8D10E00F5F1F4FDF
:100230000F731127E02E8C8DE8120CC00FB607FC4F
:10024000FACFE889F989808185FFF5CFCE010E9438
:10025000E000F1CF8B8DFE01E80FF11DE35AFF4F57
:10026000F0820B8FEA89FB898081806207C0EE896A
:10027000FF896083E889F98980818064808381E0D7
:1002800090E0DF91CF911F910F91FF90EF90089533
:10029000CF93DF93EC01888D8823C9F0EA89FB892D
:1002A000808185FD05C0A889B9898C9186FD0FC024
:1002B0000FB607FCF5CF808185FFF2CFA889B989F9
:1002C0008C9185FFEDCFCE010E94E000E7CFDF915A
:1002D000CF91089580E090E0892B29F00E94D6000C
:1002E00081110C94000008953FB7F8948091270184
:1002F00090912801A0912901B0912A0126B5A89BCF
:1003000005C02F3F19F00196A11DB11D3FBFBA2FA7
:10031000A92F982F8827820F911DA11DB11DBC0107
:10032000CD0143E0660F771F881F991F4A95D1F7CB
:100330000895009769F0FC0101900020E9F73197DA
:10034000AF01481B590BBC018DE291E00C947D007C
:1003500080E090E008950E94E1031F920F920FB693
:100360000F9211242F933F934F935F936F937F933B
:100370008F939F93AF93BF93EF93FF938DE291E0A1
:100380000E94E000FF91EF91BF91AF919F918F91FB
:100390007F916F915F914F913F912F910F900FBE81
:1003A0000F901F9018951F920F920FB60F92112465
:1003B0002F938F939F93EF93FF93E0913D01F091E3
:1003C0003E018081E0914301F091440182FD12C021
:1003D0009081809146018F5F8F7320914701821732
:1003E00051F0E0914601F0E0E35DFE4F958F809380
:1003F000460101C08081FF91EF919F918F912F91D4
:100400000F900FBE0F901F9018951F920F920FB66E
:100410000F9211242F933F938F939F93AF93BF938A
:100420008091230190912401A0912501B091260192
:100430003091220126E0230F2D3720F40296A11DD2
:10044000B11D05C029E8230F0396A11DB11D2093FE
:1004500022018093230190932401A0932501B0935E
:1004600026018091270190912801A0912901B09146
:100470002A010196A11DB11D8093270190932801A7
:10048000A0932901B0932A01BF91AF919F918F91C1
:100490003F912F910F900FBE0F901F901895CF9303
:1004A000DF93CDB7DEB7A1970FB6F894DEBF0FBECE
:1004B000CDBF789484B5826084BD84B5816084BDED
:1004C00085B5826085BD85B5816085BD80916E00F2
:1004D000816080936E001092810080918100826023
:1004E0008093810080918100816080938100809160
:1004F00080008160809380008091B100846080934F
:10050000B1008091B00081608093B00080917A004A
:10051000846080937A0080917A00826080937A0070
:1005200080917A008E7F80937A0080917A00806833
:1005300080937A001092C100E0913D01F0913E015C
:1005400082E08083E0913901F0913A011082E091DC
:100550003B01F0913C0187E6808310924501E091D8
:100560004101F091420186E08083E0913F01F091EA
:100570004001808180618083E0913F01F0914001E2
:10058000808188608083E0913F01F091400180810B
:1005900080688083E0913F01F091400180818F7DF0
:1005A000808380E191E00E9499018FE191E00E94B7
:1005B0009901E1EAF0E02491EDE8F0E084918823EC
:1005C000C9F090E0880F991FFC01EE58FF4F45914C
:1005D0005491FC01E859FF4FA591B4919FB7F8944D
:1005E000FA0180812095822380838C91E22FE82379
:1005F000EC939FBF13E49AE0892E912CA12CB12C8F
:1006000010937C0080917A00806480937A008091BE
:100610007A0086FDFCCF809178002091790090E0EF
:10062000922B90932C0180932B012C01092E000C0E
:100630006608770897FF26C0E0912D01F0912E0102
:100640000190F081E02D6DE28DE291E00995222785
:100650003327A901241935094609570919A2CE01E2
:1006600081967C01CA01B901A50194010E94B903D8
:10067000605DF70162937F01211531054105510548
:1006800089F715C0A301920119A2CE0181967C01C0
:10069000CA01B901A50194010E94B903605DF70187
:1006A00062937F01211531054105510589F7C70185
:1006B0000E9499018FE191E00E9499018FE191E000
:1006C0000E9499010E9474016B017C0184EF482E05
:1006D00055245394612C712C0E947401DC01CB01D0
:1006E0008C199D09AE09BF09883E9340A105B1054B
:1006F00058F0F1E04F1A51086108710828EEC20E57
:1007000023E0D21EE11CF11C411451046104710468
:1007100019F70E946A0174CFEDE2F1E013821282B0
:1007200088EE93E0A0E0B0E084839583A683B7834E
:1007300084E091E09183808385EC90E095878487C5
:1007400084EC90E09787868780EC90E0918B808B9B
:1007500081EC90E0938B828B82EC90E0958B848B84
:1007600086EC90E0978B868B118E128E138E148EF2
:100770000895A1E21A2EAA1BBB1BFD010DC0AA1FE2
:10078000BB1FEE1FFF1FA217B307E407F50720F0FA
:10079000A21BB30BE40BF50B661F771F881F991F75
:1007A0001A9469F760957095809590959B01AC01BE
:1007B000BD01CF010895EE0FFF1F0590F491E02DCC
:1007C000099481E090E0F8940C94E603F894FFCF4C
:1007D0000000000001017D00CA00A800BC00480123
:1007E00050686F746F63656C6C2074657374000D72
:0207F0000A00FD
:107800000C94343C0C94513C0C94513C0C94513CE1
:107810000C94513C0C94513C0C94513C0C94513CB4
:107820000C94513C0C94513C0C94513C0C94513CA4
:107830000C94513C0C94513C0C94513C0C94513C94
:107840000C94513C0C94513C0C94513C0C94513C84
:107850000C94513C0C94513C0C94513C0C94513C74
:107860000C94513C0C94513C11241FBECFEFD8E036
:10787000DEBFCDBF11E0A0E0B1E0EAE8FFE702C063
:1078800005900D92A230B107D9F712E0A2E0B1E065
:1078900001C01D92AD30B107E1F70E942D3D0C945F
:1078A000C33F0C94003C982F95959595959595958B
:1078B000905D8F708A307CF0282F295A8091C0000B
:1078C00085FFFCCF9093C6008091C00085FFFCCF60
:1078D0002093C6000895282F205DF0CF982F809127
:1078E000C00085FFFCCF9093C6000895EF92FF92F1
:1078F0000F931F93EE24FF2487018091C00087FD22
:1079000017C00894E11CF11C011D111D81E2E8164D
:1079100081EAF80687E0080780E0180770F3E09135
:107920000401F091050109958091C00087FFE9CF1E
:107930008091C6001F910F91FF90EF9008950E94D3
:10794000763C982F8091C00085FFFCCF9093C600B5
:1079500091362CF490330CF09053892F089597555D
:10796000892F08951F930E949F3C182F0E949F3CCF
:107970001295107F810F1F9108951F93182F882350
:1079800021F00E94763C1150E1F71F9108951F935A
:10799000182F0E94763C803249F0809103018F5F5E
:1079A000809303018530C1F01F9108958091C0003C
:1079B00085FFFCCF84E18093C6008091C00085FFE5
:1079C000FCCF1093C6008091C00085FFFCCF80E102
:1079D0008093C6001F910895E0910401F091050184
:1079E00009951F9108950E94763C803241F0809164
:1079F00003018F5F80930301853081F008958091AA
:107A0000C00085FFFCCF84E18093C6008091C00058
:107A100085FFFCCF80E18093C6000895E0910401CA
:107A2000F09105010995089548EC50E08823A1F0F4
:107A30002D9A28EE33E0FA013197F1F721503040CA
:107A4000D1F72D9828EE33E0FA013197F1F7215064
:107A50003040D1F7815061F708953F924F925F9285
:107A60006F927F928F929F92AF92BF92CF92DF924E
:107A7000EF92FF920F931F93CF93DF93000082E06A
:107A80008093C00080E18093C4001092C50088E11B
:107A90008093C10086E08093C2005098589A259A3E
:107AA00081E00E94143D24E1F22E9EE1E92E85E959
:107AB000D82E0FE0C02E10E1B12EAA24A394B1E479
:107AC0009B2EA6E58A2EF2E57F2EE0E26E2E79E46B
:107AD000572E63E5462E50E5352E0E94763C8033C6
:107AE000B1F18133B9F1803409F46FC0813409F404
:107AF00076C0823409F485C0853409F488C08035A5
:107B000031F1823521F1813511F1853509F485C0D6
:107B1000863509F48DC0843609F496C0843709F49B
:107B200003C1853709F472C1863709F466C08091B4
:107B300003018F5F80930301853079F6E0910401A2
:107B4000F091050109950E94763C803351F60E9420
:107B5000F33CC3CF0E94763C803249F78091C0004D
:107B600085FFFCCFF092C6008091C00085FFFCCF5E
:107B70009092C6008091C00085FFFCCF8092C60025
:107B80008091C00085FFFCCF7092C6008091C0003C
:107B900085FFFCCF6092C6008091C00085FFFCCFBE
:107BA0005092C6008091C00085FFFCCF4092C60075
:107BB0008091C00085FFFCCF3092C6008091C0004C
:107BC00085FFFCCFB092C60088CF0E94763C8638F5
:107BD00008F4BDCF0E94763C0E94F33C7ECF0E9409
:107BE000763C803809F49CC0813809F40BC1823896
:107BF00009F430C1883909F48FC080E00E94C73C85
:107C00006CCF84E10E94BD3C0E94F33C66CF85E0CE
:107C10000E94BD3C0E94F33C60CF0E94763C809362
:107C200006010E94763C809307010E94F33C55CFE9
:107C30000E94763C803309F411C183E00E94BD3C70
:107C400080E00E94C73C49CF0E94763C80930902A5
:107C50000E94763C8093080280910C028E7F809374
:107C60000C020E94763C853409F409C18091080217
:107C700090910902892B89F000E010E00E94763C87
:107C8000F801E85FFE4F80830F5F1F4F809108026D
:107C9000909109020817190788F30E94763C8032F8
:107CA00009F045CF80910C0280FFF5C0609106017C
:107CB00070910701660F771F7093070160930601AB
:107CC000A0910802B09109021097C9F0E8E0F1E034
:107CD0009B01AD014E0F5F1FF999FECF32BD21BD53
:107CE000819180BDFA9AF99A2F5F3F4FE417F5070B
:107CF00099F76A0F7B1F70930701609306018091CB
:107D0000C00085FFFCCFF092C6008091C00085FFC7
:107D1000FCCFB092C600E1CE83E00E94C73CDDCE2E
:107D200082E00E94C73CD9CE0E94763C8093090233
:107D30000E94763C80930802809106019091070191
:107D4000880F991F90930701809306010E94763C4B
:107D5000853409F49AC080910C028E7F80930C02C6
:107D60000E94763C803209F0B8CE8091C00085FF39
:107D7000FCCFF092C600A0910802B09109021097C2
:107D8000C1F180910C02082F0170182F1695117007
:107D9000E0910601F0910701AF014F5F5F4FBA011B
:107DA00020E030E00023B1F4112339F49491809164
:107DB000C00085FFFCCF9093C6002F5F3F4FCB01E3
:107DC0000196FA012A173B0780F4BC014F5F5F4F11
:107DD000002351F3F999FECFF2BDE1BDF89A90B5B9
:107DE0008091C00085FFFCCFE6CF709307016093C0
:107DF00006018091C00085FDE5CE8091C00085FF21
:107E0000F8CFE0CE81E00E94C73C67CE0E94763C6E
:107E1000803209F08CCE8091C00085FFFCCFF092BB
:107E2000C6008091C00085FFFCCFE092C600809123
:107E3000C00085FFFCCFD092C6008091C00085FFB6
:107E4000FCCFC092C6008091C00085FFFCCFB092ED
:107E5000C60043CE80E10E94C73C3FCE0E94763CE4
:107E60000E94763C182F0E94763C112309F483C0AF
:107E7000113009F484C08FE00E94C73C2ECE80915F
:107E80000C02816080930C02F1CE80910C02816023
:107E900080930C0265CF809107018823880F880B9F
:107EA0008A2180930B028091060190910701880F2F
:107EB000991F90930701809306018091080280FF2B
:107EC00009C08091080290910902019690930902DD
:107ED00080930802F894F999FECF1127E0910601EA
:107EE000F0910701C8E0D1E0809108029091090269
:107EF000103091F40091570001700130D9F303E084
:107F000000935700E8950091570001700130D9F3B4
:107F100001E100935700E8950990199000915700EE
:107F200001700130D9F301E000935700E8951395F3
:107F3000103498F011270091570001700130D9F3E7
:107F400005E000935700E89500915700017001305B
:107F5000D9F301E100935700E8953296029709F0B2
:107F6000C7CF103011F00296E5CF11248091C000E8
:107F700085FFC5CEC8CE8EE10E94C73CAECD85E957
:0A7F80000E94C73CAACDF894FFCF81
:027F8A00800075
:040000030000780081
:00000001FF
