:100000000C9453000C947B000C947B000C947B00AC
:100010000C947B000C947B000C947B000C947B0074
:100020000C947B000C947B000C947B000C947B0064
:100030000C947B000C947B000C947B000C947B0054
:100040000C9405020C947B000C94D3010C94AD012C
:100050000C947B000C947B000C947B000C947B0034
:100060000C947B000C947B0000000000250028000D
:100070002B0000000000240027002A0004040404D0
:100080000404040402020202020203030303030342
:10009000010204081020408001020408102001021F
:1000A000040810208C0311241FBECFEFD8E0DEBF60
:1000B000CDBF11E0A0E0B1E0E0EDF7E002C00590B7
:1000C0000D92A232B107D9F721E0A2E2B1E001C05E
:1000D0001D92AA3CB207E1F710E0C3E5D0E004C0EE
:1000E0002197FE010E94DB03C235D107C9F70E94A8
:1000F0004F020C94E6030C940000CF92DF92EF9233
:10010000FF920F931F93CF93DF936C017A018B01C2
:10011000C0E0D0E0CE15DF0589F0D8016D918D01EA
:10012000D601ED91FC910190F081E02DC601099579
:10013000892B11F47E0102C02196ECCFC701DF911B
:10014000CF911F910F91FF90EF90DF90CF90089586
:10015000FC01918D828D981761F0828DDF01A80FCF
:10016000B11D5D968C91928D9F5F9F73928F90E0F1
:1001700008958FEF9FEF0895FC01918D828D981760
:1001800031F0828DE80FF11D858D90E008958FEF9D
:100190009FEF0895FC01918D228D892F90E0805C66
:1001A0009F4F821B91098F73992708958DE291E0EB
:1001B0000E94CA0021E0892B09F420E0822F0895D3
:1001C000FC01848DDF01A80FB11DA35ABF4F2C91F4
:1001D000848D90E001968F739927848FA689B789C3
:1001E0002C93A089B1898C9180648C93938D848D9C
:1001F000981306C00288F389E02D80818F7D80836B
:100200000895EF92FF920F931F93CF93DF93EC012A
:1002100081E0888F9B8D8C8D981305C0E889F989C2
:10022000808185FD24C0F62E0B8D10E00F5F1F4FDF
:100230000F731127E02E8C8DE8120CC00FB607FC4F
:10024000FACFE889F989808185FFF5CFCE010E9438
:10025000E000F1CF8B8DFE01E80FF11DE35AFF4F57
:10026000F0820B8FEA89FB898081806207C0EE896A
:10027000FF896083E889F98980818064808381E0D7
:1002800090E0DF91CF911F910F91FF90EF90089533
:10029000CF93DF93EC01888D8823C9F0EA89FB892D
:1002A000808185FD05C0A889B9898C9186FD0FC024
:1002B0000FB607FCF5CF808185FFF2CFA889B989F9
:1002C0008C9185FFEDCFCE010E94E000E7CFDF915A
:1002D000CF91089580E090E0892B29F00E94D6000C
:1002E00081110C94000008953FB7F8948091270184
:1002F00090912801A0912901B0912A0126B5A89BCF
:1003000005C02F3F19F00196A11DB11D3FBFBA2FA7
:10031000A92F982F8827820F911DA11DB11DBC0107
:10032000CD0143E0660F771F881F991F4A95D1F7CB
:100330000895009769F0FC0101900020E9F73197DA
:10034000AF01481B590BBC018DE291E00C947D007C
:1003500080E090E008950E94E1031F920F920FB693
:100360000F9211242F933F934F935F936F937F933B
:100370008F939F93AF93BF93EF93FF938DE291E0A1
:100380000E94E000FF91EF91BF91AF919F918F91FB
:100390007F916F915F914F913F912F910F900FBE81
:1003A0000F901F9018951F920F920FB60F92112465
:1003B0002F938F939F93EF93FF93E0913D01F091E3
:1003C0003E018081E0914301F091440182FD12C021
:1003D0009081809146018F5F8F7320914701821732
:1003E00051F0E0914601F0E0E35DFE4F958F809380
:1003F000460101C08081FF91EF919F918F912F91D4
:100400000F900FBE0F901F9018951F920F920FB66E
:100410000F9211242F933F938F939F93AF93BF938A
:100420008091230190912401A0912501B091260192
:100430003091220126E0230F2D3720F40296A11DD2
:10044000B11D05C029E8230F0396A11DB11D2093FE
:1004500022018093230190932401A0932501B0935E
:1004600026018091270190912801A0912901B09146
:100470002A010196A11DB11D8093270190932801A7
:10048000A0932901B0932A01BF91AF919F918F91C1
:100490003F912F910F900FBE0F901F901895CF9303
:1004A000DF93CDB7DEB7A1970FB6F894DEBF0FBECE
:1004B000CDBF789484B5826084BD84B5816084BDED
:1004C00085B5826085BD85B5816085BD80916E00F2
:1004D000816080936E001092810080918100826023
:1004E0008093810080918100816080938100809160
:1004F00080008160809380008091B100846080934F
:10050000B1008091B00081608093B00080917A004A
:10051000846080937A0080917A00826080937A0070
:1005200080917A008E7F80937A0080917A00806833
:1005300080937A001092C100E0913D01F0913E015C
:1005400082E08083E0913901F0913A011082E091DC
:100550003B01F0913C0187E6808310924501E091D8
:100560004101F091420186E08083E0913F01F091EA
:100570004001808180618083E0913F01F0914001E2
:10058000808188608083E0913F01F091400180810B
:1005900080688083E0913F01F091400180818F7DF0
:1005A000808380E191E00E9499018FE191E00E94B7
:1005B0009901E1EAF0E02491EDE8F0E084918823EC
:1005C000C9F090E0880F991FFC01EE58FF4F45914C
:1005D0005491FC01E859FF4FA591B4919FB7F8944D
:1005E000FA0180812095822380838C91E22FE82379
:1005F000EC939FBF13E49AE0892E912CA12CB12C8F
:1006000010937C0080917A00806480937A008091BE
:100610007A0086FDFCCF809178002091790090E0EF
:10062000922B90932C0180932B012C01092E000C0E
:100630006608770897FF26C0E0912D01F0912E0102
:100640000190F081E02D6DE28DE291E00995222785
:100650003327A901241935094609570919A2CE01E2
:1006600081967C01CA01B901A50194010E94B903D8
:10067000605DF70162937F01211531054105510548
:1006800089F715C0A301920119A2CE0181967C01C0
:10069000CA01B901A50194010E94B903605DF70187
:1006A00062937F01211531054105510589F7C70185
:1006B0000E9499018FE191E00E9499018FE191E000
:1006C0000E9499010E9474016B017C0184EF482E05
:1006D00055245394612C712C0E947401DC01CB01D0
:1006E0008C199D09AE09BF09883E9340A105B1054B
:1006F00058F0F1E04F1A51086108710828EEC20E57
:1007000023E0D21EE11CF11C411451046104710468
:1007100019F70E946A0174CFEDE2F1E013821282B0
:1007200088EE93E0A0E0B0E084839583A683B7834E
:1007300084E091E09183808385EC90E095878487C5
:1007400084EC90E09787868780EC90E0918B808B9B
:1007500081EC90E0938B828B82EC90E0958B848B84
:1007600086EC90E0978B868B118E128E138E148EF2
:100770000895A1E21A2EAA1BBB1BFD010DC0AA1FE2
:10078000BB1FEE1FFF1FA217B307E407F50720F0FA
:10079000A21BB30BE40BF50B661F771F881F991F75
:1007A0001A9469F760957095809590959B01AC01BE
:1007B000BD01CF010895EE0FFF1F0590F491E02DCC
:1007C000099481E090E0F8940C94E603F894FFCF4C
:1007D0000000000001017D00CA00A800BC00480123
:1007E00050686F746F63656C6C2074657374000D72
:0207F0000A00FD
:00000001FF
