:100000000C945C000C9479000C9479000C947900A9
:100010000C9479000C9479000C9479000C9479007C
:100020000C9479000C9479000C9479000C9479006C
:100030000C9479000C9479000C9479000C9479005C
:100040000C946B010C9479000C9479000C94790059
:100050000C9479000C9479000C9479000C9479003C
:100060000C9479000C947900000000080002010053
:100070000003040700000000000000000000000072
:10008000250028002B0000000000240027002A0083
:10009000040404040404040402020202020203032E
:1000A0000303030301020408102040800102040836
:1000B000102001020408102011241FBECFEFD8E049
:1000C000DEBFCDBF11E0A0E0B1E0E6E7F4E002C0A2
:1000D00005900D92A031B107D9F721E0A0E1B1E080
:1000E00001C01D92A931B207E1F70E94B5010C943D
:1000F00039020C94000090E0FC01EC55FF4F249174
:10010000FC01E057FF4F8491882399F090E0880F1D
:10011000991FFC01EA57FF4FA591B491FC01E458E7
:10012000FF4F859194918FB7F894EC91E22BEC936B
:100130008FBF089590E0FC01E859FF4F3491FC0116
:10014000EC55FF4F2491FC01E057FF4FE491EE2363
:1001500009F43BC0332339F1333091F038F43130B6
:10016000A9F0323001F584B58F7D12C0373091F09F
:100170003830A1F03430B9F4809180008F7D03C015
:10018000809180008F77809380000DC084B58F7739
:1001900084BD09C08091B0008F7703C08091B0000A
:1001A0008F7D8093B000F0E0EE0FFF1FE458FF4F0B
:1001B000A591B4918FB7F894EC91611103C020958B
:1001C0002E2301C02E2B2C938FBF08953FB7F89498
:1001D0008091150190911601A0911701B09118011D
:1001E00026B5A89B05C02F3F19F00196A11DB11D92
:1001F0003FBFBA2FA92F982F8827820F911DA11DCD
:10020000B11DBC01CD0143E0660F771F881F991F08
:100210004A95D1F708958F929F92AF92BF92CF9255
:10022000DF92EF92FF920E94E6004B015C0184EFA7
:10023000C82EDD24D394E12CF12C0E94E600DC01D1
:10024000CB0188199909AA09BB09883E9340A105E9
:10025000B10558F021E0C21AD108E108F10888EE92
:10026000880E83E0981EA11CB11CC114D104E104C6
:10027000F10419F7FF90EF90DF90CF90BF90AF900F
:100280009F908F900895FF920F931F93CF93DF93CA
:10029000F82EC0E0D0E0062F10E0B8010C2E02C00E
:1002A000759567950A94E2F7617077278F2D0E9404
:1002B0009A0061E085E00E949A0060E085E00E947B
:1002C0009A002196C830D10541F7DF91CF911F9157
:1002D0000F91FF9008951F920F920FB60F92112465
:1002E0002F933F938F939F93AF93BF93809111016F
:1002F00090911201A0911301B0911401309110015D
:1003000026E0230F2D3720F40296A11DB11D05C054
:1003100029E8230F0396A11DB11D2093100180939E
:10032000110190931201A0931301B09314018091D5
:10033000150190911601A0911701B0911801019635
:10034000A11DB11D8093150190931601A093170173
:10035000B0931801BF91AF919F918F913F912F91D1
:100360000F900FBE0F901F901895789484B58260FF
:1003700084BD84B5816084BD85B5826085BD85B549
:10038000816085BD80916E00816080936E001092C7
:100390008100809181008260809381008091810042
:1003A00081608093810080918000816080938000D3
:1003B0008091B10084608093B1008091B000816031
:1003C0008093B00080917A00846080937A0080915D
:1003D0007A00826080937A0080917A008E7F809389
:1003E0007A0080917A00806880937A001092C10030
:1003F00086E00E947B0083E00E947B0084E00E94F4
:100400007B0085E00E947B0080E0E82E80E0F82EF3
:10041000C0E0D1E08E01F801D1908F0160E084E06E
:100420000E949A006D2D86E00E94430161E084E005
:100430000E949A000E940B01F1E000311F0759F75A
:10044000199160E084E00E949A00612F83E00E948D
:10045000430161E084E00E949A000E940B0181E068
:10046000C031D80769F7E114F10491F20E9400004D
:06047000CFCFF894FFCF8E
:10047600FA60DCF466B6BEE0FEF6EE3E9A7C9E8E30
:00000001FF
